{
  "contractName": "PiggyBank",
  "abi": [
    {
      "constant": true,
      "inputs": [
        {
          "name": "",
          "type": "address"
        }
      ],
      "name": "accountsToBalances",
      "outputs": [
        {
          "name": "",
          "type": "uint256"
        }
      ],
      "payable": false,
      "stateMutability": "view",
      "type": "function",
      "signature": "0x0f1c707f"
    },
    {
      "constant": true,
      "inputs": [
        {
          "name": "",
          "type": "address"
        }
      ],
      "name": "accountsToGoals",
      "outputs": [
        {
          "name": "",
          "type": "uint256"
        }
      ],
      "payable": false,
      "stateMutability": "view",
      "type": "function",
      "signature": "0x52c33b1c"
    },
    {
      "constant": false,
      "inputs": [
        {
          "name": "_goal",
          "type": "uint256"
        }
      ],
      "name": "createPiggyBank",
      "outputs": [],
      "payable": false,
      "stateMutability": "nonpayable",
      "type": "function",
      "signature": "0x4adc5fa3"
    },
    {
      "constant": false,
      "inputs": [],
      "name": "deposit",
      "outputs": [],
      "payable": true,
      "stateMutability": "payable",
      "type": "function",
      "signature": "0xd0e30db0"
    },
    {
      "constant": false,
      "inputs": [
        {
          "name": "_receiver",
          "type": "address"
        }
      ],
      "name": "withdraw",
      "outputs": [],
      "payable": false,
      "stateMutability": "nonpayable",
      "type": "function",
      "signature": "0x51cff8d9"
    },
    {
      "constant": true,
      "inputs": [],
      "name": "viewBalance",
      "outputs": [
        {
          "name": "",
          "type": "uint256"
        }
      ],
      "payable": false,
      "stateMutability": "view",
      "type": "function",
      "signature": "0x3ff1e05b"
    },
    {
      "constant": true,
      "inputs": [],
      "name": "accountHasPiggy",
      "outputs": [
        {
          "name": "",
          "type": "bool"
        }
      ],
      "payable": false,
      "stateMutability": "view",
      "type": "function",
      "signature": "0x25eaf4fe"
    },
    {
      "constant": true,
      "inputs": [],
      "name": "viewGoal",
      "outputs": [
        {
          "name": "",
          "type": "uint256"
        }
      ],
      "payable": false,
      "stateMutability": "view",
      "type": "function",
      "signature": "0xf2777e55"
    }
  ],
  "bytecode": "0x608060405234801561001057600080fd5b50610898806100206000396000f3fe60806040526004361061008e576000357c0100000000000000000000000000000000000000000000000000000000900463ffffffff1680630f1c707f1461009357806325eaf4fe146100f85780633ff1e05b146101275780634adc5fa31461015257806351cff8d91461018d57806352c33b1c146101de578063d0e30db014610243578063f2777e551461024d575b600080fd5b34801561009f57600080fd5b506100e2600480360360208110156100b657600080fd5b81019080803573ffffffffffffffffffffffffffffffffffffffff169060200190929190505050610278565b6040518082815260200191505060405180910390f35b34801561010457600080fd5b5061010d610290565b604051808215151515815260200191505060405180910390f35b34801561013357600080fd5b5061013c6102d9565b6040518082815260200191505060405180910390f35b34801561015e57600080fd5b5061018b6004803603602081101561017557600080fd5b8101908080359060200190929190505050610320565b005b34801561019957600080fd5b506101dc600480360360208110156101b057600080fd5b81019080803573ffffffffffffffffffffffffffffffffffffffff1690602001909291905050506104ff565b005b3480156101ea57600080fd5b5061022d6004803603602081101561020157600080fd5b81019080803573ffffffffffffffffffffffffffffffffffffffff1690602001909291905050506106f9565b6040518082815260200191505060405180910390f35b61024b610711565b005b34801561025957600080fd5b50610262610826565b6040518082815260200191505060405180910390f35b60016020528060005260406000206000915090505481565b6000806000803373ffffffffffffffffffffffffffffffffffffffff1673ffffffffffffffffffffffffffffffffffffffff168152602001908152602001600020541415905090565b6000600160003373ffffffffffffffffffffffffffffffffffffffff1673ffffffffffffffffffffffffffffffffffffffff16815260200190815260200160002054905090565b6000811115156103be576040517f08c379a00000000000000000000000000000000000000000000000000000000081526004018080602001828103825260218152602001807f596f757220676f616c206d7573742062652067726561746572207468616e203081526020017f2e0000000000000000000000000000000000000000000000000000000000000081525060400191505060405180910390fd5b60008060003373ffffffffffffffffffffffffffffffffffffffff1673ffffffffffffffffffffffffffffffffffffffff16815260200190815260200160002054141515610474576040517f08c379a000000000000000000000000000000000000000000000000000000000815260040180806020018281038252601f8152602001807f596f75206d757374206e6f74206861766520612070696767792062616e6b2e0081525060200191505060405180910390fd5b6000600160003373ffffffffffffffffffffffffffffffffffffffff1673ffffffffffffffffffffffffffffffffffffffff16815260200190815260200160002081905550806000803373ffffffffffffffffffffffffffffffffffffffff1673ffffffffffffffffffffffffffffffffffffffff1681526020019081526020016000208190555050565b60008060003373ffffffffffffffffffffffffffffffffffffffff1673ffffffffffffffffffffffffffffffffffffffff1681526020019081526020016000205490506000600160003373ffffffffffffffffffffffffffffffffffffffff1673ffffffffffffffffffffffffffffffffffffffff168152602001908152602001600020549050818110151515610624576040517f08c379a00000000000000000000000000000000000000000000000000000000081526004018080602001828103825260238152602001807f596f752068617665206e6f74207265616368656420796f757220676f616c207981526020017f65742e000000000000000000000000000000000000000000000000000000000081525060400191505060405180910390fd5b6000600160003373ffffffffffffffffffffffffffffffffffffffff1673ffffffffffffffffffffffffffffffffffffffff1681526020019081526020016000208190555060008060003373ffffffffffffffffffffffffffffffffffffffff1673ffffffffffffffffffffffffffffffffffffffff168152602001908152602001600020819055508273ffffffffffffffffffffffffffffffffffffffff166108fc829081150290604051600060405180830381858888f193505050501580156106f3573d6000803e3d6000fd5b50505050565b60006020528060005260406000206000915090505481565b600034111515610789576040517f08c379a00000000000000000000000000000000000000000000000000000000081526004018080602001828103825260158152602001807f596f752063616e6e6f74206465706f73697420302e000000000000000000000081525060200191505060405180910390fd5b60008060003373ffffffffffffffffffffffffffffffffffffffff1673ffffffffffffffffffffffffffffffffffffffff16815260200190815260200160002054141515156107d757600080fd5b34600160003373ffffffffffffffffffffffffffffffffffffffff1673ffffffffffffffffffffffffffffffffffffffff16815260200190815260200160002060008282540192505081905550565b60008060003373ffffffffffffffffffffffffffffffffffffffff1673ffffffffffffffffffffffffffffffffffffffff1681526020019081526020016000205490509056fea165627a7a72305820a18ef33e7fb9bde5076b33bc8c1b2076da1d14762928125846fff12e929716550029",
  "source": "pragma solidity ^0.5.0;\n\n/** @title Piggy Bank. */\ncontract PiggyBank {\n\n    mapping(address => uint256) public accountsToGoals;\n    mapping(address => uint256) public accountsToBalances;\n\n\n    /** @dev Creates a new piggyInfo bank with a goal that must be reached before being able to withdraw.\n      * @param _goal Goal to be reached before being allowed to withdraw.\n      */\n    function createPiggyBank(uint256 _goal) public {\n        require(_goal > 0, \"Your goal must be greater than 0.\"); // make sure that specified goal is greater than 0.\n        require(accountsToGoals[msg.sender] == 0, \"You must not have a piggy bank.\");\n        accountsToBalances[msg.sender] = 0;\n        accountsToGoals[msg.sender] = _goal;\n    }\n\n    /** @dev Deposits into sender's piggyInfo bank, if it exists.\n      */\n    function deposit() external payable {\n        require(msg.value > 0, \"You cannot deposit 0.\"); // make sure that user is depositing more than 0.\n        require(accountsToGoals[msg.sender] != 0); // require sender to have a piggyInfo bank.\n        accountsToBalances[msg.sender] += msg.value;\n    }\n\n    /** @dev Withdraws from sender's piggyInfo bank and deposits that into a specified account.\n      * @param _receiver The account to deposit the withdrew money into.\n      */\n    function withdraw(address payable _receiver) external {\n        uint256 goal = accountsToGoals[msg.sender];\n        uint256 balance = accountsToBalances[msg.sender];\n\n        require(balance >= goal, \"You have not reached your goal yet.\"); // make sure that the goal has been reached.\n        accountsToBalances[msg.sender] = 0;\n        accountsToGoals[msg.sender] = 0;\n        _receiver.transfer(balance);\n    }\n\n    /** @dev Function to view the current balance in sender's piggyInfo bank.\n      * @return Returns the current balance in sender's piggyInfo bank.\n      */\n    function viewBalance() public view returns(uint256) {\n//        require(accountsToGoals[msg.sender] != 0); // require sender to have a piggyInfo bank\n        return accountsToBalances[msg.sender];\n    }\n\n    function accountHasPiggy() view public returns(bool){\n        return accountsToGoals[msg.sender] != 0;\n    }\n\n    function viewGoal() view public returns(uint256){\n        return accountsToGoals[msg.sender];\n    }\n\n}\n",
  "sourcePath": "/Users/kelvinfan/Projects/Hackathons/crypto-piggies/contract/contracts/PiggyBank.sol",
  "compiler": {
    "name": "solc",
    "version": "0.5.0+commit.1d4f565a.Emscripten.clang"
  },
  "schemaVersion": "3.0.0",
  "updatedAt": "2019-03-10T11:12:21.056Z",
  "devdoc": {
    "methods": {
      "createPiggyBank(uint256)": {
        "details": "Creates a new piggyInfo bank with a goal that must be reached before being able to withdraw.",
        "params": {
          "_goal": "Goal to be reached before being allowed to withdraw."
        }
      },
      "deposit()": {
        "details": "Deposits into sender's piggyInfo bank, if it exists."
      },
      "viewBalance()": {
        "details": "Function to view the current balance in sender's piggyInfo bank.",
        "return": "Returns the current balance in sender's piggyInfo bank."
      },
      "withdraw(address)": {
        "details": "Withdraws from sender's piggyInfo bank and deposits that into a specified account.",
        "params": {
          "_receiver": "The account to deposit the withdrew money into."
        }
      }
    },
    "title": "Piggy Bank. "
  },
  "userdoc": {
    "methods": {}
  }
}