{
  "contractName": "PiggyBank",
  "abi": [
    {
      "constant": true,
      "inputs": [
        {
          "name": "",
          "type": "address"
        }
      ],
      "name": "accountsToBalances",
      "outputs": [
        {
          "name": "",
          "type": "uint256"
        }
      ],
      "payable": false,
      "stateMutability": "view",
      "type": "function",
      "signature": "0x0f1c707f"
    },
    {
      "constant": true,
      "inputs": [
        {
          "name": "",
          "type": "address"
        }
      ],
      "name": "accountsToGoals",
      "outputs": [
        {
          "name": "",
          "type": "uint256"
        }
      ],
      "payable": false,
      "stateMutability": "view",
      "type": "function",
      "signature": "0x52c33b1c"
    },
    {
      "constant": false,
      "inputs": [
        {
          "name": "_goal",
          "type": "uint256"
        }
      ],
      "name": "createPiggyBank",
      "outputs": [],
      "payable": false,
      "stateMutability": "nonpayable",
      "type": "function",
      "signature": "0x4adc5fa3"
    },
    {
      "constant": false,
      "inputs": [],
      "name": "deposit",
      "outputs": [],
      "payable": true,
      "stateMutability": "payable",
      "type": "function",
      "signature": "0xd0e30db0"
    },
    {
      "constant": false,
      "inputs": [
        {
          "name": "_receiver",
          "type": "address"
        }
      ],
      "name": "withdraw",
      "outputs": [],
      "payable": false,
      "stateMutability": "nonpayable",
      "type": "function",
      "signature": "0x51cff8d9"
    },
    {
      "constant": true,
      "inputs": [],
      "name": "viewBalance",
      "outputs": [
        {
          "name": "",
          "type": "uint256"
        }
      ],
      "payable": false,
      "stateMutability": "view",
      "type": "function",
      "signature": "0x3ff1e05b"
    }
  ],
  "bytecode": "0x608060405234801561001057600080fd5b506106a7806100206000396000f3fe608060405260043610610078576000357c0100000000000000000000000000000000000000000000000000000000900463ffffffff1680630f1c707f1461007d5780633ff1e05b146100e25780634adc5fa31461010d57806351cff8d91461014857806352c33b1c14610199578063d0e30db0146101fe575b600080fd5b34801561008957600080fd5b506100cc600480360360208110156100a057600080fd5b81019080803573ffffffffffffffffffffffffffffffffffffffff169060200190929190505050610208565b6040518082815260200191505060405180910390f35b3480156100ee57600080fd5b506100f7610220565b6040518082815260200191505060405180910390f35b34801561011957600080fd5b506101466004803603602081101561013057600080fd5b81019080803590602001909291905050506102b4565b005b34801561015457600080fd5b506101976004803603602081101561016b57600080fd5b81019080803573ffffffffffffffffffffffffffffffffffffffff1690602001909291905050506103dd565b005b3480156101a557600080fd5b506101e8600480360360208110156101bc57600080fd5b81019080803573ffffffffffffffffffffffffffffffffffffffff16906020019092919050505061054e565b6040518082815260200191505060405180910390f35b610206610566565b005b60016020528060005260406000206000915090505481565b6000806000803373ffffffffffffffffffffffffffffffffffffffff1673ffffffffffffffffffffffffffffffffffffffff168152602001908152602001600020541415151561026f57600080fd5b600160003373ffffffffffffffffffffffffffffffffffffffff1673ffffffffffffffffffffffffffffffffffffffff16815260200190815260200160002054905090565b600081111515610352576040517f08c379a00000000000000000000000000000000000000000000000000000000081526004018080602001828103825260218152602001807f596f757220676f616c206d7573742062652067726561746572207468616e203081526020017f2e0000000000000000000000000000000000000000000000000000000000000081525060400191505060405180910390fd5b6000600160003373ffffffffffffffffffffffffffffffffffffffff1673ffffffffffffffffffffffffffffffffffffffff16815260200190815260200160002081905550806000803373ffffffffffffffffffffffffffffffffffffffff1673ffffffffffffffffffffffffffffffffffffffff1681526020019081526020016000208190555050565b60008060003373ffffffffffffffffffffffffffffffffffffffff1673ffffffffffffffffffffffffffffffffffffffff1681526020019081526020016000205490506000600160003373ffffffffffffffffffffffffffffffffffffffff1673ffffffffffffffffffffffffffffffffffffffff168152602001908152602001600020549050818110151515610502576040517f08c379a00000000000000000000000000000000000000000000000000000000081526004018080602001828103825260238152602001807f596f752068617665206e6f74207265616368656420796f757220676f616c207981526020017f65742e000000000000000000000000000000000000000000000000000000000081525060400191505060405180910390fd5b8273ffffffffffffffffffffffffffffffffffffffff166108fc829081150290604051600060405180830381858888f19350505050158015610548573d6000803e3d6000fd5b50505050565b60006020528060005260406000206000915090505481565b6000341115156105de576040517f08c379a00000000000000000000000000000000000000000000000000000000081526004018080602001828103825260158152602001807f596f752063616e6e6f74206465706f73697420302e000000000000000000000081525060200191505060405180910390fd5b60008060003373ffffffffffffffffffffffffffffffffffffffff1673ffffffffffffffffffffffffffffffffffffffff168152602001908152602001600020541415151561062c57600080fd5b34600160003373ffffffffffffffffffffffffffffffffffffffff1673ffffffffffffffffffffffffffffffffffffffff1681526020019081526020016000206000828254019250508190555056fea165627a7a723058203f63b9abf8f71a99284e9021c988c7c45dbf3ff30007f4be9b8f9c91e982f1d80029",
  "source": "pragma solidity ^0.5.0;\n\n/** @title Piggy Bank. */\ncontract PiggyBank {\n\n    mapping(address => uint256) public accountsToGoals;\n    mapping(address => uint256) public accountsToBalances;\n\n    /** @dev Creates a new piggy bank with a goal that must be reached before being able to withdraw.\n      * @param _goal Goal to be reached before being allowed to withdraw.\n      */\n    function createPiggyBank(uint256 _goal) public {\n        require(_goal > 0, \"Your goal must be greater than 0.\"); // make sure that specified goal is greater than 0.\n        accountsToBalances[msg.sender] = 0;\n        accountsToGoals[msg.sender] = _goal;\n    }\n\n    /** @dev Deposits into sender's piggy bank, if it exists.\n      */\n    function deposit() external payable {\n        require(msg.value > 0, \"You cannot deposit 0.\"); // make sure that user is depositing more than 0.\n        require(accountsToGoals[msg.sender] != 0); // require sender to have a piggy bank.\n        accountsToBalances[msg.sender] += msg.value;\n    }\n\n    /** @dev Withdraws from sender's piggy bank and deposits that into a specified account.\n      * @param _receiver The account to deposit the withdrew money into.\n      */\n    function withdraw(address payable _receiver) external {\n        uint256 goal = accountsToGoals[msg.sender];\n        uint256 balance = accountsToBalances[msg.sender];\n\n        require(balance >= goal, \"You have not reached your goal yet.\"); // make sure that the goal has been reached.\n        _receiver.transfer(balance);\n    }\n\n    /** @dev Function to view the current balance in sender's piggy bank.\n      * @return Returns the current balance in sender's piggy bank.\n      */\n    function viewBalance() public view returns(uint256) {\n        require(accountsToGoals[msg.sender] != 0); // require sender to have a piggy bank\n        return accountsToBalances[msg.sender];\n    }\n}\n",
  "sourcePath": "/Users/kelvinfan/Projects/blockchain/decentral-bank/contract/contracts/PiggyBank.sol",
  "compiler": {
    "name": "solc",
    "version": "0.5.0+commit.1d4f565a.Emscripten.clang"
  },
  "schemaVersion": "3.0.0",
  "updatedAt": "2019-03-09T18:04:38.894Z",
  "devdoc": {
    "methods": {
      "createPiggyBank(uint256)": {
        "details": "Creates a new piggy bank with a goal that must be reached before being able to withdraw.",
        "params": {
          "_goal": "Goal to be reached before being allowed to withdraw."
        }
      },
      "deposit()": {
        "details": "Deposits into sender's piggy bank, if it exists."
      },
      "viewBalance()": {
        "details": "Function to view the current balance in sender's piggy bank.",
        "return": "Returns the current balance in sender's piggy bank."
      },
      "withdraw(address)": {
        "details": "Withdraws from sender's piggy bank and deposits that into a specified account.",
        "params": {
          "_receiver": "The account to deposit the withdrew money into."
        }
      }
    },
    "title": "Piggy Bank. "
  },
  "userdoc": {
    "methods": {}
  }
}