{
  "contractName": "PiggyBank",
  "abi": [
    {
      "constant": true,
      "inputs": [
        {
          "name": "",
          "type": "address"
        }
      ],
      "name": "accountsToBalance",
      "outputs": [
        {
          "name": "",
          "type": "uint256"
        }
      ],
      "payable": false,
      "stateMutability": "view",
      "type": "function",
      "signature": "0x10cd9c69"
    },
    {
      "constant": true,
      "inputs": [
        {
          "name": "",
          "type": "address"
        }
      ],
      "name": "accountsToGoals",
      "outputs": [
        {
          "name": "",
          "type": "uint256"
        }
      ],
      "payable": false,
      "stateMutability": "view",
      "type": "function",
      "signature": "0x52c33b1c"
    },
    {
      "constant": false,
      "inputs": [
        {
          "name": "_goal",
          "type": "uint256"
        }
      ],
      "name": "createPiggyBank",
      "outputs": [],
      "payable": false,
      "stateMutability": "nonpayable",
      "type": "function",
      "signature": "0x4adc5fa3"
    },
    {
      "constant": false,
      "inputs": [],
      "name": "deposit",
      "outputs": [],
      "payable": true,
      "stateMutability": "payable",
      "type": "function",
      "signature": "0xd0e30db0"
    },
    {
      "constant": false,
      "inputs": [
        {
          "name": "_receiver",
          "type": "address"
        }
      ],
      "name": "withdraw",
      "outputs": [],
      "payable": false,
      "stateMutability": "nonpayable",
      "type": "function",
      "signature": "0x51cff8d9"
    }
  ],
  "bytecode": "0x608060405234801561001057600080fd5b5061054d806100206000396000f3fe60806040526004361061006d576000357c0100000000000000000000000000000000000000000000000000000000900463ffffffff16806310cd9c69146100725780634adc5fa3146100d757806351cff8d91461011257806352c33b1c14610163578063d0e30db0146101c8575b600080fd5b34801561007e57600080fd5b506100c16004803603602081101561009557600080fd5b81019080803573ffffffffffffffffffffffffffffffffffffffff1690602001909291905050506101d2565b6040518082815260200191505060405180910390f35b3480156100e357600080fd5b50610110600480360360208110156100fa57600080fd5b81019080803590602001909291905050506101ea565b005b34801561011e57600080fd5b506101616004803603602081101561013557600080fd5b81019080803573ffffffffffffffffffffffffffffffffffffffff169060200190929190505050610284565b005b34801561016f57600080fd5b506101b26004803603602081101561018657600080fd5b81019080803573ffffffffffffffffffffffffffffffffffffffff1690602001909291905050506103f4565b6040518082815260200191505060405180910390f35b6101d061040c565b005b60016020528060005260406000206000915090505481565b6000811115156101f957600080fd5b6000600160003373ffffffffffffffffffffffffffffffffffffffff1673ffffffffffffffffffffffffffffffffffffffff16815260200190815260200160002081905550806000803373ffffffffffffffffffffffffffffffffffffffff1673ffffffffffffffffffffffffffffffffffffffff1681526020019081526020016000208190555050565b60008060003373ffffffffffffffffffffffffffffffffffffffff1673ffffffffffffffffffffffffffffffffffffffff16815260200190815260200160002054905060008060003373ffffffffffffffffffffffffffffffffffffffff1673ffffffffffffffffffffffffffffffffffffffff1681526020019081526020016000205490508181101515156103a8576040517f08c379a00000000000000000000000000000000000000000000000000000000081526004018080602001828103825260238152602001807f596f752068617665206e6f74207265616368656420796f757220676f616c207981526020017f65742e000000000000000000000000000000000000000000000000000000000081525060400191505060405180910390fd5b8273ffffffffffffffffffffffffffffffffffffffff166108fc829081150290604051600060405180830381858888f193505050501580156103ee573d6000803e3d6000fd5b50505050565b60006020528060005260406000206000915090505481565b600034111515610484576040517f08c379a00000000000000000000000000000000000000000000000000000000081526004018080602001828103825260158152602001807f596f752063616e6e6f74206465706f73697420302e000000000000000000000081525060200191505060405180910390fd5b60008060003373ffffffffffffffffffffffffffffffffffffffff1673ffffffffffffffffffffffffffffffffffffffff16815260200190815260200160002054141515156104d257600080fd5b34600160003373ffffffffffffffffffffffffffffffffffffffff1673ffffffffffffffffffffffffffffffffffffffff1681526020019081526020016000206000828254019250508190555056fea165627a7a723058207212426b48eb035eb18efb1a53270057704fc7ace45cb735085febe4076b7d1a0029",
  "source": "pragma solidity ^0.5.0;\n\n//contract PiggyBankFactory {\n//    mapping(address => PiggyBank) public existingPiggyBanks;\n//\n//    address[] public deployedPiggyBanks;\n//\n//    function createPiggyBank(uint _goal) public {\n//        PiggyBank newPiggyBank = new PiggyBank(_goal);\n//\n//        existingPiggyBanks[address(msg.sender)] = newPiggyBank;\n//    }\n//\n//    function deposit(address _to) public {\n//        require(existingPiggyBanks[_to].goal() > 0); // requires _to to have a piggy bank.\n//        existingPiggyBanks[_to].deposit();\n//    }\n//}\n\ncontract PiggyBank {\n\n    mapping(address => uint256) public accountsToGoals;\n    mapping(address => uint256) public accountsToBalance;\n\n    function createPiggyBank(uint256 _goal) public {\n        require(_goal > 0);\n        accountsToBalance[msg.sender] = 0;\n        accountsToGoals[msg.sender] = _goal;\n    }\n\n\n    function deposit() external payable {\n        require(msg.value > 0, \"You cannot deposit 0.\");\n        require(accountsToGoals[msg.sender] != 0);\n        accountsToBalance[msg.sender] += msg.value;\n    }\n\n    function withdraw(address payable _receiver) external {\n        uint256 goal = accountsToGoals[msg.sender];\n        uint256 balance = accountsToGoals[msg.sender];\n\n        require(balance >= goal, \"You have not reached your goal yet.\");\n        _receiver.transfer(balance);\n    }\n}\n",
  "sourcePath": "/Users/kelvinfan/Projects/blockchain/decentral-bank/contract/contracts/PiggyBank.sol",
  "compiler": {
    "name": "solc",
    "version": "0.5.0+commit.1d4f565a.Emscripten.clang"
  },
  "schemaVersion": "3.0.0",
  "updatedAt": "2019-02-23T23:07:50.238Z",
  "devdoc": {
    "methods": {}
  },
  "userdoc": {
    "methods": {}
  }
}